:020000040800F2
:10000000484A0020610200086B28000835270008D4
:10001000692800083D0B0008292F00080000000097
:10002000000000000000000000000000A101000826
:100030005D0C000800000000FD010008E128000838
:100040007B0200087B0200087B0200087B0200089C
:100050007B0200087B0200087B0200087B0200088C
:100060007B0200087B0200087B0200087B0200087C
:100070007B0200087B0200087B0200087B0200086C
:100080007B0200087B0200087B0200084D0B000881
:10009000410B00087B0200087B0200087B0200087D
:1000A0007B0200087B0200087B0200087B0200083C
:1000B0007B0200087B0200087B0200087B0200082C
:1000C0007B0200087B0200087B0200087B0200081C
:1000D0007B020008452E00087B0200087B02000816
:1000E0007B0200087B0200087B0200087B020008FC
:1000F0007B0200087B0200087B0200087B020008EC
:100100007B0200087B0200087B0200087B020008DB
:100110007B0200087B020008B12900087B0200086E
:100120007B0200087B020008A10B00087B0200088C
:100130007B0200087B0200087B0200087B020008AB
:100140007B0200087B0200087B0200087B0200089B
:100150007B0200087B020008AD0B00087B02000850
:100160007B0200087B0200087B0200087B0200087B
:100170007B0200087B0200087B02000800000000F0
:100180007B0200087B020008DFF810D000F090F935
:1001900000480047C5300008AFF30080484A0020FF
:1001A0002C4B19680868B0E8F04F80F30988BFF35A
:1001B0006F8F4FF0000080F311887047000000003F
:1001C00008480068006880F308884FF0000080F35A
:1001D000148862B661B6BFF34F8FBFF36F8F00DF35
:1001E00000BF00BF08ED00E0DFF80C00016841F43B
:1001F00070010160704700BF88ED00E0EFF30980F7
:10020000BFF36F8F134B1A681EF0100F08BF20ED5D
:10021000108A20E9F04F106009B44FF0500080F3CD
:100220001188BFF34F8FBFF36F8F03F079FC4FF04E
:10023000000080F3118809BC19680868B0E8F04F25
:100240001EF0100F08BFB0EC108A80F30988BFF3CE
:100250006F8F704748000020EFF305807047000063
:100260000648804706480047FEE7FEE7FEE7FEE750
:10027000FEE7FEE7FEE7FEE7FEE7FEE7A12900084E
:10028000890100082DE9F05F0546002092469B4653
:1002900088460646814640241BE02846414647469C
:1002A000224600F06FF853465A46C01A914110D3C7
:1002B00011461846224600F056F82D1A67EB010841
:1002C0004F4622460120002100F04DF817EB0009AF
:1002D0004E41201EA4F10104DFDC484631462A4687
:1002E0004346BDE8F09F40EA01039B0703D009E0C5
:1002F00008C9121F08C0042AFAD203E011F8013B12
:1003000000F8013B521EF9D27047D2B201E000F86A
:10031000012B491EFBD270470022F6E710B51346A9
:100320000A4604461946FFF7F0FF204610BD01F0CB
:10033000004330B421F0004150EA010206D00A0D1A
:10034000A2F56072C1F31301002A02DC30BC002068
:100350007047440F44EAC104C100E01830BC00EB10
:10036000C25000F06DB8202A04DB203A00FA02F1F6
:10037000002070479140C2F1200320FA03F3194393
:1003800090407047202A04DB203A21FA02F0002135
:10039000704721FA02F3D040C2F120029140084395
:1003A000194670470FB4002300B589B00CA900911D
:1003B0000B996FF00042CB601E4B06931E4B0793C8
:1003C0000423CDE901321D4A089202466B46002003
:1003D00000F01AF909B05DF814FB70B586B0064656
:1003E0004FF0FF300091CDE90101002015460C4689
:1003F00004903246694604A8FFF7D4FF02460498E9
:10040000211825B108B1084600E02046286004986C
:1004100000280DD0002A02DD0098884208D0081B71
:100420000094CDE901043246694604A8FFF7BAFFFB
:1004300006B070BD410800085F080008D504000838
:100440000029A8BF7047401C490008BF20F00100E8
:10045000704710B4B0FA80FC00FA0CF050EA0104C6
:1004600004BF10BC704749B1CCF1200421FA04F458
:1004700011FA0CF118BF012121430843A3EB0C0131
:10048000CB1D4FEA00614FEA102042BF002010BC94
:10049000704700EBC35010440029A4BF10BC704744
:1004A000401C490008BF20F0010010BC704700004C
:1004B000064C074D06E0E06840F0010394E80700B1
:1004C00098471034AC42F6D3FFF762FE603F000855
:1004D000803F0008C0B24FF4F05100F0D1B90000E5
:1004E0002DE9FF4F087883B09946FF2805D0491CB5
:1004F0002D2804D00024002008E000200BE0012477
:10050000F9E700EB800003EB4000491C0B78FF2B60
:10051000F7D104B1404200230293147819461D46D6
:100520002D2C01D02B2C04D1521C2D2C13D00024A7
:100530000294AA461478FF2C0FD00A25A3FB057855
:1005400001FB05814FF0000C03FB0C11521CE31959
:100550004AEB0101EEE70124EAE7814453EA010096
:1005600002D019F5C87F06DA03980021C0E900110E
:1005700007B0BDE8F08F0025AE4E2F46DFF8B882F9
:10058000184600F072FACDE90001B9F1000002DA74
:10059000C9F1000400E004460023A74A1AEB030B4C
:1005A00042EB045A12E0E00707D02A4633463846A9
:1005B000414600F079F9074688462A4633461046F8
:1005C000194600F071F905460E466410002CEAD178
:1005D000DDE90001B9F1000F5A46534606DA00F092
:1005E000D5F93A46434600F0D1F905E000F05CF950
:1005F0003A46434600F058F9029A0AB181F00041A8
:10060000039AC2E90001B3E72DE9FF4F1F468DB001
:10061000D7E901464FF0FF382E2045464FF000093C
:100620000B90B9696D1C0E988847396A82468847D5
:100630000028F6D1BAF1FF3F0AD024F4D064002E8E
:1006400011DDBAF12B0F08D0BAF12D0F0BD102E05A
:10065000404611B08DE744F48064B9696D1C0E9872
:1006600088478246761E6946600501D52D2000E048
:100670002B208DF8000001F1010B0DF1200809E09D
:10068000B9696D1C0E98884782460F9844F400742F
:10069000761E0560002E02DDBAF1300FF0D00B9906
:1006A0008A453ED144F0800406E00F99681CA9F108
:1006B000010944F400740860B9696D1C761E0E9837
:1006C000884782463028F0D02BE00B998A4505D127
:1006D000200603D444F08004761E18E0504602F051
:1006E0006FFC08B30DF11301761E44F400748B45C2
:1006F00008D2AAF130000BF8010B200607D5A9F1AA
:10070000010003E0200602D409F101008146A005A2
:1007100002D50F99681C0860B9696D1C0E9888474E
:100720008246002ED1DC53E0002E51DDBAF1650F78
:1007300002D0BAF1450F4BD1A00549D5B9696D1C5E
:1007400024F44074761E0E9888478246002E0CDDF5
:100750002B2804D0BAF12D0F07D144F48074B96965
:100760006D1C0E9888478246761EE00501D52D2126
:1007700000E02B2108F8011BCDF82C8021E00DF1C1
:100780002901761E44F4007488450CD2AAF1300089
:1007900010F0FF0088F8000002D10B99884509D9B4
:1007A00008F1010806E0E00501D5244801E042F225
:1007B0000F708146B9696D1C0E98884782460F9864
:1007C0000560002E04DD504602F0FAFB0028D6D169
:1007D000F9690E988847FF208BF8000088F8000020
:1007E0000020069007904B466A4608A906A8FFF726
:1007F00077FEA00502D46FF001002AE714F0240F61
:100800000AD0E00714D1DDE906123868031D3B6009
:100810000068C0E900120BE0DDE90601FFF787FD83
:100820000146E00704D13868021D3A6000680160A3
:1008300028460EE7000014400000F03FF1D8FFFF0B
:10084000426842B1016811F8013B23B1521EC0E970
:100850000012184670470121C160881E7047426827
:100860005AB1C368016843B983688B4205D0491EF9
:10087000521CC0E90012002070474FF0FF30704753
:100880007F2801D9002208E0064A02EB5002C00787
:10089000127800D1120902F00F02012090400840A6
:1008A00070470000083F00082DE9FE4F81EA03046D
:1008B00004F0004421F0004100944FF0000B23F0BD
:1008C000004350EA01045ED052EA03045BD0C3F354
:1008D0000A54C1F30A552C44A4F2F3340194A0FB4A
:1008E0000254C1F3130141F48011C3F3130343F421
:1008F000801301FB024400FB034E840A970A44EA7A
:10090000815447EA8357A4FB076802958D0A05FBCB
:1009100007854FEA932C04FB0C542705029D4FEAF0
:10092000065847EA1637B5EB08056EEB070C870E3D
:10093000920E47EA811742EA8312A7FB0201B6EB47
:100940000B0164EB00042B0D43EA0C335E1844EBFF
:100950001C50DA465146E7FB0201C5F313044FEA87
:100960000B3343EA14534FEA0432019C43EA060373
:10097000A4F10C040294009CCDE900B400F090F8BE
:1009800003B0BDE8F08F00200146F9E72DE9F04DF6
:1009900081EA030404F0004B21F0004514464FF0B7
:1009A000000A23F0004150EA050220D054EA010277
:1009B0001DD0C5F30A570246C5F31303C1F3130054
:1009C000C1F30A5640F4801543F48013A7EB0608E0
:1009D000101BD64608F2FD3873EB050002D308F170
:1009E000010801E092185B41B8F1000F03DA002022
:1009F0000146BDE8F08D00204FF480110646844684
:100A00000EE0171B73EB050705D3121B63EB050301
:100A100006434CEA010C49084FEA300092185B414A
:100A200050EA0107EDD152EA030012D082EA040035
:100A300083EA0501084305D0101BAB4106D2012211
:100A4000002306E000224FF0004302E06FF00102B5
:100A500053101AEB06004CEB085110EB0A0041EB67
:100A60000B01BDE8F04D00F00CB80EB540F233427A
:100A700002920022CDE90022134600F011F803B0E3
:100A800000BD10B5141E73F1000408DA401C41F1DA
:100A9000000192185B411A4301D120F0010010BD02
:100AA0002DE9F04D92469B4611B1B1FA81F202E078
:100AB000B0FA80F220329046FFF755FC04460F460C
:100AC00040EA0A0041EA0B0153465A46084313D054
:100AD000114653EA010019D0C8F140025046FFF711
:100AE00051FC05460E46504659464246FFF73BFC30
:100AF000084305D0012004E020463946BDE8F08DCA
:100B00000020054346EAE0762C4337430A98630504
:100B1000E40AA0EB08000022FD0A44EA47540A3028
:100B200002D500200146E9E7010510196941DDE918
:100B3000084500196941BDE8F04DA2E7FEE7000055
:100B4000014800F00ABA000028040020014800F023
:100B500004BA00002804002038B50E4C4FF400758C
:100B600025600025A560E560082525610A4C050A79
:100B700025706070080AA070E170100A207162711F
:100B8000180AA071E3716B4622460249034800F03F
:100B90007AF838BD0C0600202D0000202804002023
:100BA000014800F06FBC000094040020014800F0F0
:100BB00069BC0000F404002001681823CAB2103A8E
:100BC000B2FBF3F2054B6FF30901032A9B5CC3658B
:100BD00000D9091D8165084670470000E83E0008FD
:100BE00010B5014600208B698A6A4FF0C07453B17A
:100BF000B3F5005F15D072B1012A0CD0022A0AD0D9
:100C0000032A09D104E01AB1012A06D0022A03D12D
:100C1000C96AC90100D5012010BDC96AA142FAD034
:100C200010BD002AF7D0012AF2D0022AF3D0032AFD
:100C3000F3D010BD30B50468256825F48025256003
:100C4000046863608368402B036803D09960006880
:100C5000C26030BD9A600068C16030BD704772B636
:100C6000FEE790F82020012A07D0022A05D0416A29
:100C700041F48021416201207047006842690A43C3
:100C8000426100207047F0B590F820500468A468D5
:100C9000012D05D0022D03D0416A41F480215DE091
:100CA00014F0406F01D1E50055D5C4F30164022C66
:100CB00003D9416A41F4000150E00125A5401D60BF
:100CC0008D684FF4C0739DB1CE6835434E6845EAD8
:100CD000C605066803EB0417F5514FF4C2750768A3
:100CE00005EB04150E697E51097D012905D009E047
:100CF0000E88CD6845EA4655EBE701684E5946F443
:100D000080764E511179D579567941EA0561957908
:100D10002D0445EA062529434FF4C676056806EBFF
:100D20000416A9511178D57841EA05619578527871
:100D30002D0445EA022211434FF4C475026805EB05
:100D400004155151006803EB0411425842F00102AE
:100D500042500020F0BD416A41F40011416201207F
:100D6000F0BD000010B590F82020012A07D0022A1B
:100D700005D0416A41F480214162012010BD3B4809
:100D8000D0F8002242F00102C0F80022D0F8002280
:100D900022F47C52C0F80022D0F800224B6A42EACA
:100DA0000322C0F800220A7D02F01F0301229A40AC
:100DB000D0F81C329343C0F81C32CB69B3B9D0F8D9
:100DC0000C329343C0F80C328C894B6864F31F4398
:100DD0004C6900EBC404C4F840320C890B6864F31E
:100DE0001F434C6900EBC404C4F84432CB69012BA7
:100DF00016D1D0F80C321343C0F80C320C884B6873
:100E000064F31F434C6900EBC404C4F840320C89FE
:100E1000CB6864F31F434C6900EBC404C4F844324C
:100E20008B69002BD0F804320ED01343C0F8043283
:100E30000B69002BD0F8143208D01343C0F81432D9
:100E4000096A012904D008E09343EFE79343F5E7EB
:100E5000D0F81C121143C0F81C12D0F8001221F077
:100E60000101C0F80012002010BD00000064004025
:100E7000704730B590F82040012C05D0022C03D0EB
:100E8000416A41F480215DE00468002955D024695D
:100E9000A40754D04FF4D874056804EB01142D59FD
:100EA00015F00405956005682D594ED0ED08556084
:100EB00005682C5904F00204D4604FF4DA74056814
:100EC00004EB01142D5905F00F05156105682D5926
:100ED000C5F30725956105682C59240C54614FF41E
:100EE000DC72046802EB0112A4581C700468A45858
:100EF000240A5C700468A458240C9C700468A258EE
:100F0000120EDA704FF4DE72046802EB0112A4587C
:100F10001C710468A458240A5C710468A458240C49
:100F20009C710468A258120EDA71006881B10169DF
:100F300041F020010161002030BDE468A8E7416A6A
:100F400041F400114162012030BD6D0D1560AFE725
:100F5000C16841F02001C160EDE72DE9F05F054671
:100F6000006800244669D0F804908768D0F80CB077
:100F7000D0F810A0D0F81880F10748D0F90714D0A5
:100F800001218160B80703D5284600F01AFA0CE069
:100F9000780702D54FF4006407E0380702D54FF414
:100FA000805402E0284600F00BFAF80516D52968AF
:100FB0004FF480708860B80503D5284600F003FA26
:100FC0000CE0780502D544F4005407E0380502D55A
:100FD00044F4804402E0284600F0F4F9F80316D502
:100FE00029684FF480308860B80303D5284600F0A4
:100FF000ECF90CE0780302D544F4004407E0380330
:1010000002D544F4803402E0284600F0DDF93007D0
:1010100007D55FEACB6004D52968102044F400743A
:10102000C86070074FF0080707D55FEA0B7004D55A
:101030002868C760284600F05FF9B00706D5286821
:10104000C068800702D0284600F058F9700607D51E
:101050005FEACA6004D52968102044F480640861FE
:10106000B00607D55FEA0A7004D5286807612846EC
:1010700000F076F9F00606D528680069800702D0EE
:10108000284600F06EF9B00308D55FEAC96005D5BF
:10109000296810204860284600F064F9F00307D55D
:1010A0005FEA097004D528684760284600F08EF989
:1010B000300446D55FEA497040D5F00504D55FEAB3
:1010C000C87001D044F00104B00504D55FEA88700F
:1010D00001D544F00204700504D55FEA487001D5DB
:1010E00044F00404300529D518F0700F26D008F01C
:1010F0007000402815D006DC102809D020280AD01E
:10110000302816D10AE050280ED0602811D10EE008
:1011100044F008040DE044F010040AE044F0200418
:1011200007E044F0400404E044F0800401E044F4AB
:1011300080742868816921F0700181612968042028
:101140004860002C05D0686A204368622846FFF793
:101150008FFEBDE8F09F70B5040003D094F8200026
:1011600010B104E0012070BD204600F081F8206835
:10117000016841F00101016000F0EEFB0546052623
:1011800004E000F0E9FB401B0A2811D82068406801
:10119000C007F6D02068016821F00201016000F06C
:1011A000DBFB05460BE000F0D7FB401B0A2806D905
:1011B000606A40F40030606284F82060D2E7206802
:1011C00040688007EFD4207E0128206801683DD068
:1011D00021F080010160607E01282068016838D01C
:1011E00021F040010160A07E01282068016833D011
:1011F00021F020010160E07E0128206801682ED0E6
:1012000041F010010160207F01282068016829D089
:1012100021F008010160607F01282068016824D066
:1012200021F004010160D4E902010843D4E9041269
:10123000114308436168491E08432168C8610020C2
:101240006062012084F82000002070BD41F0800120
:10125000C0E741F04001C5E741F02001CAE721F0B5
:101260001001CFE741F00801D4E741F00401D9E7CC
:1012700010B586B0044614216846FFF74DF81B49A7
:10128000206888422FD11A480021026842F000727B
:101290000260006800F00070059015481038026880
:1012A00042F0080202600068022200F00800059087
:1012B0000320CDE90210CDE900020920049069461F
:1012C0000C4800F051FA00220521132000F0E2FB47
:1012D000132000F0D1FB00220521142000F0DAFBDE
:1012E000142000F0C9FB06B010BD000000640040EF
:1012F00040380240000C02407047000000B58BB03F
:1013000001AB03AA0021FFF7B4FD0398A0F201206E
:10131000062818D80F49C0B208700F4901EB001019
:1013200001880181BDF8041049BA0180BDF806109A
:1013300049BA4180BDF8081049BA81809DF80A1069
:10134000817101F0A3FE02210448FFF78AFC0BB073
:1013500000BD00002C0000209C0500202804002077
:10136000704770477047000070B5044690F8200041
:10137000012804D0606A40F40020606218E0022076
:1013800084F820002068016821F00101016000F06C
:10139000E3FA05460EE000BF00F0DEFA401B0A2823
:1013A00008D9606A40F400306062052084F82000AB
:1013B000012070BD20684068C007EDD1606270BD3B
:1013C00070477047704770477047704770472DE906
:1013D000F0410446876D00F0BFFA064694F83500E8
:1013E0000025022806D08020606584F83450012052
:1013F000BDE8F0812068016821F0160101602068D5
:10140000416921F080014161206C08B9A06C20B1D4
:101410002068016821F0080101602068016821F05E
:10142000010101600CE000F097FA801B052807D944
:1014300020206065032084F8350084F83450D7E715
:1014400020680068C007EED194F85C103F20884007
:10145000B860012084F8350084F834500020C7E7D4
:1014600090F83510022903D0802141650120704792
:10147000052180F835100068016821F00101016044
:10148000002070472DE9F84304464FF00009CDF8DD
:10149000009063484FF41651A56D0068B0FBF1F75A
:1014A0002E6894F85C10082000FA01F131420FD048
:1014B00021680A6852070BD50A6822F004020A6004
:1014C00094F85C108840A860606D40F00100606591
:1014D00094F85C104FF0010808FA01F0304208D08F
:1014E00021684969090604D5A860606D40F00200D2
:1014F000606594F85C1004208840304208D0216870
:101500000968890704D5A860606D40F00400606533
:1015100094F85C1010208840304218D02168096887
:10152000090714D5A86020680168490304D500683C
:10153000000308D5A16C07E00168C90503D4016860
:1015400021F008010160216C09B12046884794F818
:101550005C1020208840304231D021680968C906DB
:101560002DD5A86094F8350005282068016806D0BC
:10157000490347D5006800031DD4616C1CE021F0CD
:10158000160101602068416921F080014161206CF1
:1015900008B9A06C20B12068016821F00801016041
:1015A00094F85C103F208840A86084F8358084F867
:1015B0003490216D1FE0E16B09B120468847606DD2
:1015C00000282BD0606DC00714D0052084F83500AA
:1015D0002068016821F0010101600098401C009022
:1015E000B84203D820680068C007F6D184F8358077
:1015F00084F83490E16C002910D001B02046BDE899
:10160000F04308470168C905D5D4016821F01001ED
:10161000016084F8358084F83490CCE7BDE8F88325
:10162000440000202DE9F041044600F095F90646FB
:101630005CB1022084F83500002584F8345020681D
:10164000016821F0010101600DE00120BDE8F08199
:1016500000F082F9801B052805D920206065032051
:1016600084F83500F2E720680068C007F0D12268EE
:10167000116820480140D4E901031843D4E9033636
:101680003343184363691843A3691843E369184354
:10169000236A18430843616A042903D1D4E90B1370
:1016A00019430843106020684069666A20F007010A
:1016B00030460E43012704280CD1A06A0643E06A95
:1016C00040B12046FFF78CFA20B14020606584F8D5
:1016D0003570BAE7206846612046FFF76DFA94F846
:1016E0005C203F2191408160656584F83570002061
:1016F000ACE700003F8010F02DE9F0410446866D14
:1017000090F83400002501280DD0012084F8340021
:1017100094F835700020012F07D084F8340002259A
:101720002846BDE8F0810220FBE7022784F83570E7
:1017300060652046FFF77EFA94F85C103F208840F1
:10174000B0602068016841F016010160206C20B192
:101750002068016841F0080101602068016841F0DB
:1017600001010160DCE700002DE9F84FDFF8BCA1C2
:101770000022012503264FF00F090AF1040BAAF1FC
:10178000040E00BF0B6805FA02F42340A34270D197
:101790000F7907F00307012F01D0022F16D18768B8
:1017A0004FEA420806FA08FC27EA0C07D1F80CC0F9
:1017B0000CFA08FC4CEA070CC0F808C04768A743BD
:1017C0000C79C4F3001494403C4344600C79E44326
:1017D000A4070AD0C4684FEA420C06FA0CF7BC43CF
:1017E0008F6807FA0CF72743C7600C7904F00304ED
:1017F000022C12D1D40800EB840CDCF820405707EF
:10180000FF0E09FA07F824EA0804D1F8108008FA54
:1018100007F848EA0408CCF8208004684FEA420C34
:1018200006FA0CF7BC430F7907F0030707FA0CF729
:10183000274307604C6814F4403F70D03C4C276845
:1018400047F480472760246822F0030704F48044AB
:101850000094384C07EB040CDCF8084897074FEA73
:10186000177809FA08F7BC43334FB84202D1002772
:1018700024E054E0314FB84201D101271EE0304F3F
:10188000B84201D1022719E02E4FB84201D10327F7
:1018900014E02D4FB84201D104270FE02B4FB8427E
:1018A00001D105270AE02A4FB84201D1062705E0F9
:1018B000284FB84201D1072700E0082707FA08F7A8
:1018C0002743CCF80878DAF800405746D1F804C02E
:1018D0009C435FEACC2C00D51C433C60DBF8004005
:1018E0005F46D1F804C09C435FEA8C2C00D51C43B2
:1018F0003C60DEF800407746D1F804C09C435FEAC4
:101900008C3C00D51C433C60084F083F3C68D1F834
:1019100004C09C435FEACC3C00D51C433C60521C95
:10192000102AFFF42FAFBDE8F88F0000083C0140FB
:1019300044380240003001400000024000040240F0
:1019400000080240000C0240001002400014024057
:1019500000180240001C02400148806870470000E7
:101960003800002002488168027811448160704785
:10197000380000200B4810B5016841F40071016087
:10198000016841F480610160016841F48071016087
:10199000032000F09FF80F2000F006F800F050F848
:1019A000002010BD003C024030B505461F4887B0FE
:1019B0000024016841F010010160006806A900F0F0
:1019C0001000009001A800F031F90498A8B100F0CF
:1019D0004DF940001649174AB0FBF1F11648491E6F
:1019E000026040F2E732C0E90324C0E901148461D7
:1019F00000F044FB040003D015E000F037F9E9E7FC
:101A00000D4800F069FB04000DD1362000F034F8D9
:101A1000102D07D200222946362000F03BF8074857
:101A2000056000E0012407B0204630BD4038024088
:101A300040420F0000100040540500203C000020F0
:101A40000C4882B0016841F480410160006800F4F4
:101A5000804000900748001F016841F080510160FC
:101A60000068002200F0805000900F21901E02B00C
:101A700000F010B844380240002809DB00F01F02D3
:101A8000012191404009800000F1E020C0F80011E0
:101A900070470000F0B40E4B1B680C46C3F30223E2
:101AA000C3F10705042D00D90425191D072901D20A
:101AB000002300E0DB1E012606FA05F1491E214045
:101AC00099409E40761E16403143F0BC01F02DBA7D
:101AD0000CED00E0064900F0070208684FF6FF032E
:101AE000184040EA0220034A104308607047000093
:101AF0000CED00E00000FA052DE9F0470E46050068
:101B000065D0DFF81481D8F80000F7B200F00700C4
:101B1000B04207D288F80070D8F8000000F0070043
:101B2000B04254D128683D4C810712D5400703D5F7
:101B3000206840F4E05020602878000703D5206832
:101B400040F4604020602068A96820F0F00008435D
:101B500020602878C0072DD03049686808390128EE
:101B600012D0022813D0032811D009688907002950
:101B70002DDA216821F0030101432160FFF7ECFE1B
:101B8000814641F2883A0EE009688903EFE7096867
:101B90008901ECE7FFF7E0FEA0EB0901514502D90E
:101BA0000320BDE8F0872068696800F00C00B0EB06
:101BB000810FEFD1D8F80010404601F00701B14283
:101BC00007D90770006800F00700B04201D001207B
:101BD000E7E72878400705D52068E96820F4E05059
:101BE000084320602878000706D52068296920F47A
:101BF000604040EAC100206000F058F82168084ABF
:101C0000C1F30311515CC8400649086006480068EA
:101C1000FFF7CAFE0020C4E7003C0240083802403B
:101C2000F03E0008440000203C0000200F2202602B
:101C30000C4A136803F003034360136803F0F003D6
:101C40008360136803F4E053C36012684FF4E053F9
:101C500003EAD20202610448006800F0070008604D
:101C60007047000008380240003C02400448054923
:101C700000680968044AC1F38221515CC84070477A
:101C80004400002008380240003F0008044805498D
:101C900000680968044AC1F34231515CC84070478A
:101CA0004400002008380240003F0008154810B5E5
:101CB000006810F00C02144813D04110042A0FD011
:101CC000082A0ED10F4C241F2268236802F03F021D
:101CD0005B0207D52068C0F38810A0FB010106E075
:101CE000084610BD2168C1F38811A1FB0001002343
:101CF000FEF7C8FA2168C1F30141491C4900B0FB55
:101D0000F1F010BD083802400024F4002DE9F84F2E
:101D100004006ED02078DFF84C93C007A9F10405C9
:101D20004AD009F104000168C1F38101012908D0FA
:101D30000068C0F3810002280AD1D9F800004002EF
:101D400006D52868800337D560680028E1D033E0E5
:101D50006068B0F5803F10D0B0F5A02F286810D093
:101D600020F480302860286820F480202860606893
:101D7000A8B1FFF7F1FD06460DE0286840F4803079
:101D8000F4E740F480202860F7E700BFFFF7E4FDA8
:101D9000801B642873D828688003F7D50CE0FFF710
:101DA000DBFD064605E000BFFFF7D6FD801B64287B
:101DB000F0D828688003F7D42078DFF8AC82800759
:101DC0004FF0000A3ED5A748001D016811F00C0F26
:101DD00008D00068C0F3810002280BD1D9F80000B8
:101DE000400207D42868800716D5E068012800D192
:101DF00012E033E1E068B8B10120C8F80000FFF755
:101E0000ABFD064605E000BFFFF7A6FD801B0228DC
:101E1000C0D828688007F7D52868216920F0F80025
:101E200040EAC10028600DE0C8F800A0FFF794FD6B
:101E3000064604E0FFF790FD801B02281FD82868A3
:101E40008007F7D42078000722D5864F874861693C
:101E5000703771B101210160FFF77EFD064604E095
:101E6000FFF77AFD801B022809D838688007F7D56C
:101E70000EE0C0F800A0FFF76FFD064605E082E027
:101E8000FFF76AFD801B02287DD838688007F7D4E9
:101E90002078400768D5DFF8CCB100270BF13C0B68
:101EA000DBF80000C0000BD4DBF8001041F08051DB
:101EB000CBF80010DBF80000012700F08050009004
:101EC0006B4E3068C00510D4306840F480703060CC
:101ED000FFF742FD009005E0FFF73EFD0099401A34
:101EE000022850D83068C005F6D55E4EA0686C3622
:101EF00001280FD00528306810D020F00100306094
:101F0000306820F004003060A068B8B1FFF724FD0D
:101F100000900FE0306840F00100F4E740F004006A
:101F20003060F7E7FFF718FD0099411A41F2883059
:101F3000814266D830688007F4D50EE0FFF70CFDCB
:101F4000009007E0FFF708FD0099411A41F2883040
:101F5000814256D830688007F4D42FB1DBF80010E6
:101F600021F08051CBF80010A069C8B33D49091D8C
:101F70000968C1F3810102294AD00228504607D0DE
:101F8000C8F8600000E03CE0FFF7E6FC04463BE0F8
:101F90004746C8F86000FFF7DFFC064605E000BFD3
:101FA000FFF7DAFC801B02282BD828688001F7D4C1
:101FB000D4E907010843A16A2E4A490802EB01410E
:101FC000626A41EA8211084394F82C1040EA0161E8
:101FD000C9F8001001203866FFF7BEFC044606E091
:101FE0003EE000BFFFF7B8FC001B022809D82868B4
:101FF0008001F7D534E000BFFFF7AEFC001B0228DC
:1020000002D90320BDE8F88F28688001F4D427E0C6
:102010000128F7D0D9F80000E26900F4800191426C
:102020001CD1226A00F03F01914217D147F6C071DE
:10203000626A0140B1EB821F10D1A26A4FF0FF33F8
:1020400000F4403103EB5202B1EB024F06D194F899
:102050002C1000F07060B0EB016F01D00120D1E7CF
:102060000020CFE70438024000004742800E47427C
:10207000007000400000FFFF7047704710B504007B
:1020800003D094F83D0010B107E0012010BD0020FE
:1020900084F83C00204600F01EF8022084F83D0041
:1020A000211D206800F08AFC012084F8460084F895
:1020B0003E0084F83F0084F8400084F8410084F832
:1020C000420084F8430084F8440084F8450084F812
:1020D0003D00002010BD704790F83D10012901D04F
:1020E00001207047022180F83D100168CA6842F063
:1020F0000102CA6000681149884214D0B0F1804FD3
:1021000011D00F4988420ED00E4988420BD00E499B
:10211000884208D00D49884205D00D49884202D036
:102120000C49884204D1816801F00701062903D0D7
:10213000016841F00101016000207047000001408A
:102140000004004000080040000C00400004014072
:102150000040014000180040704770B50446006818
:1021600001694FF00005C943890715D4C168C94307
:10217000890711D4E91E0161012020772068806958
:102180008007204602D0FFF7E7FF04E000F098F850
:10219000204600F096F8257720680169C943490771
:1021A00017D4C168C943490713D46FF00401016112
:1021B000022020772068806910F4407F204602D0FA
:1021C000FFF7CAFF04E000F07BF8204600F079F842
:1021D000257720680169C943090716D4C168C94336
:1021E000090712D46FF008010161042020772068EC
:1021F000C0698007204602D0FFF7AEFF04E000F080
:102200005FF8204600F05DF8257720680169C94332
:10221000C90617D4C168C943C90613D46FF01001A9
:102220000161082020772068C06910F4407F2046B3
:1022300002D0FFF791FF04E000F042F8204600F0E2
:1022400040F8257720680169C943C90708D1C168EA
:10225000C943C90704D1891E0161204600F032F844
:1022600020680169C943090609D4C168C943090640
:1022700005D46FF0800101612046FFF7FDFE206864
:102280000169C943490609D4C168C943490605D44F
:102290006FF040010161204600F01EF820680169DE
:1022A000C94389060BD4C168C943890607D46FF0B6
:1022B000200101612046BDE87040FFF7DEBE70BD21
:1022C0007047704700680349884201D1FFF74ABB55
:1022D00070470000001000407047704710B504467A
:1022E0000068406994F83D10C0F3C010212911D155
:1022F00080B12068143050E8001F21F0800140E8D0
:102300000012002AF5D1606B08B1FFF760F8204693
:1023100000F05AFC2068406994F83E10C0F3801029
:10232000222911D180B12068143050E8001F21F01B
:10233000400140E80012002AF5D1A06B08B1FFF778
:1023400046F8204600F019FC002010BD7047000040
:10235000F8B5016804460868CA684B6910F00F0FA9
:102360004FF0000559D003F0010602F4907737438F
:1023700065D0C10705D0D10503D5216C41F001011D
:102380002164410705D5D90703D0216C41F0020132
:102390002164810705D5D90703D0216C41F00401E0
:1023A0002164010707D502F02001314303D0216CDD
:1023B00041F008012164216C00293AD0800604D53F
:1023C000900602D5204600F00DFC20684069216C83
:1023D000C0F38010090700D460B3204600F0CDFBA5
:1023E00020684069400621D52068143050E8001F5D
:1023F00021F0400140E80012002AF5D1A06BA8B1FD
:102400006C490165A06BFFF72BF8002811D0A06B79
:10241000016D01B0BDE8F040084783060FD5930673
:102420000DD52046BDE8F84000F0DCBB2046FFF7A4
:102430008DFFF8BD2046FFF789FF2564F8BD266BA8
:102440002023012E79D1C60677D5D60675D5086822
:10245000486800904869400640D5A16B086840680C
:102460000004000CEAD0A28D8242E7D9E085C86959
:10247000B0F5807F2DD020680C3050E8001F21F48B
:10248000807140E80012002AF5D12068143050E82D
:10249000001F21F0010140E80012002AF5D1206858
:1024A000143050E8001F21F0400140E80012002ADB
:1024B000F5D184F83E30256320680C3050E8001FC9
:1024C00021F0100140E80012002AF5D1A06BFEF7C0
:1024D0007EFFA08DE18D401A81B229E0A08DE18DB3
:1024E000401A81B2E08D0028A8D00029A6D020682B
:1024F0000C3050E8002F22F4907240E80026002EA5
:10250000F5D12068143050E8002F22F0010240E895
:102510000026002EF5D184F83E30256320680C306B
:1025200050E8002F22F0100240E80023002BF5D1E4
:102530002046FFF7D2FEF8BDFFE705062BD51506AE
:1025400029D594F83D002128F5D1A068B0F5805F29
:1025500001D12069B0B1206A411C21622168007854
:102560004860E08C401E0004000CE084E3D1206849
:10257000C16821F08001C1602068C16841F040015C
:10258000C160D8E7206A0088C0F308004860206A6C
:10259000801C2062E5E74006CDD55006CBD5CA6841
:1025A000204622F04002CA6084F83D3000F0C1F8B5
:1025B000C1E70000852A000870B5040004D094F833
:1025C0003D00002510B106E0012070BD84F83C50AC
:1025D000204600F023F8242084F83D002068C168DC
:1025E00021F40051C160204600F05CFB20680169C5
:1025F00021F4904101612068416921F02A01416183
:102600002068C16841F40051C1602564202084F82D
:102610003D0084F83E00002070BD00002DE9F0412F
:1026200086B0064614216846FDF776FE30493068CC
:1026300088425AD12F480024016841F010010160FE
:10264000006800F0100005902A481438016841F035
:10265000010101600068694600F0010005904FF437
:10266000C06000900220CDE9010403200390072000
:1026700004902148FFF778F8214D20484FF000677B
:102680002860C5E901744FF48068C5E903486C61AE
:10269000B812AC61C5E9074028466C62FEF7C2FF7C
:1026A00008B1FEF7DCFAB563AE63154D134860352B
:1026B0007830E5E802074020A5E81101104845F808
:1026C00014496030AC61EC612C626C62FEF7AAFFC9
:1026D00008B1FEF7C4FA7563002205212520AE6318
:1026E000FFF7D8F92520FFF7C7F906B0BDE8F0815C
:1026F00000100140443802400000024040640240A3
:102700009404002090F83E30202B0ED159B152B1E4
:1027100090F83C30012B08D0012380F83C30002396
:10272000036300F045BB01207047022070477047EB
:1027300070477047FEE700000F4810B50D49016073
:102740000321416000214FF400228160C0E903129F
:102750004FF440124261017641768176C17601776D
:102760004177FEF7F8FC002803D0BDE81040FEF7E3
:1027700076BA10BD00640040280400200D4808B55A
:10278000016841F4800101600068002200F48000CB
:10279000009005213A20FFF77DF93A20FFF76CF908
:1027A000002205214620FFF775F9BDE808404620C4
:1027B000FFF762B93038024010B58EB01C220B49C9
:1027C0006846FDF790FD0021684600F0E9FC084CE2
:1027D00006491C2220601C3107A8FDF784FD00215A
:1027E00007A800F0DDFC60600EB010BDB03E000830
:1027F0001C0000200D4808B5016841F0800101600F
:10280000016801F080010091016841F0010101605F
:10281000016801F001010091016841F008010160C7
:10282000006800F00800009008BD00003038024049
:102830000C4810B50A4901604FF4E13141600021B4
:1028400081600C22C160C0E904128161C161FFF79F
:10285000B3FE002803D0BDE81040FEF700BA10BD5B
:102860000010014050040020FEE7FEE7034800F09E
:102870008DFF012000F088FCF8E70000C401002073
:10288000144F114C114D124EDFF84C8007F1100916
:10289000DFF848A000F062FC2068C2680188C2EB43
:1028A000423211442960B0F9020030603968C8F83A
:1028B000001099ED000A0120BDEEC00A8AED000A61
:1028C00000F062FCE6E7000024060020180000206B
:1028D00014000020B4010020100000200C00002093
:1028E00010B5502080F31188BFF34F8FBFF36F8F67
:1028F00001F016FA18B104494FF08050086000202A
:1029000080F3118810BD000004ED00E030B593B0F5
:1029100030216846FDF700FD14210CA8FDF7FCFCF2
:102920001D480025016841F080510160006800F0F9
:10293000805011901948016841F48041016000689D
:10294000022400F480401190012003901020049094
:10295000009406940820CDE90750A820CDE9090489
:1029600004200B906846FFF7D1F908B172B6FEE774
:102970000CA90F2081E831004FF4A0500F904FF4C4
:102980008050109005210CA8FFF7B6F8002801D060
:1029900072B6FEE713B030BD403802400070004010
:1029A0000248016841F470010160704788ED00E061
:1029B0000148FFF7D2BB000054050020F0B50268C3
:1029C000254C264D264E274F274B4FF0804CA042DA
:1029D00009D0604507D0A84205D0B04203D0B84224
:1029E00001D0984204D122F0700E4A6842EA0E02E9
:1029F000A0421BD0604519D0A84217D0B04215D0D4
:102A0000B84213D0984211D0184DA8420ED0184D9C
:102A1000A8420BD0174DA84208D0174DA84205D0A8
:102A2000164DA84202D0164DA84203D122F440759B
:102A3000CA682A434D6922F080022A4302608A68EC
:102A4000C2620A688262A04201D0984201D109693B
:102A5000016301214161F0BD00000140000400401C
:102A600000080040000C004000040140004001400C
:102A7000004401400048014000180040001C004094
:102A80000020004010B5806B0021C185C184FFF794
:102A90005DFC10BD70B5846B2068406994F83D10F2
:102AA000C0F3C0100025212904D118B1E5842046C7
:102AB00000F08AF82068406994F83E10C0F3801056
:102AC000222904D118B1E585204600F056F8206C83
:102AD00040F0100020642046FFF738FC70BD10B5B0
:102AE0000146806B09680968C9052FD40021C1859A
:102AF00001680C3151E8002F22F4807241E8002374
:102B0000002BF5D10168143151E8002F22F00102A9
:102B100041E80023002BF5D10168143151E8002F62
:102B200022F0400241E80023002BF5D1202180F85B
:102B30003E10016B012909D101680C3151E8002FC9
:102B400022F0100241E80023002BF5D1016B01298E
:102B500002D0FFF7ECFD10BD818DFFF7BEFB10BD6D
:102B600010B5806B016B012902D0FFF7E1FD10BDAC
:102B7000818D4908FFF7B1FB10BD01680C3151E8A8
:102B8000002F22F4907241E80023002BF5D1016858
:102B9000143151E8002F22F0010241E80023002BFC
:102BA000F5D1016B012909D101680C3151E8002FE1
:102BB00022F0100241E80023002BF5D1202180F8FB
:102BC0003E1000210163704701680C3151E8002F6D
:102BD00022F0C00241E80023002BF5D1202180F82B
:102BE0003D10704708B590F83E10222901D0022010
:102BF00008BD82684FF480539A4201D1016921B126
:102C0000816A9A421BD04AB10AE00268816A52681E
:102C1000C2F308020A80816A891C08E0026972B165
:102C20000268526802F07F020A70816A491C816260
:102C3000C18D491E0904090CC18503D019E0026841
:102C40005268F1E70168CA6822F02002CA60016890
:102C5000CA6822F48072CA6001684A6922F00102DF
:102C60004A61202180F83E10016B012903D0FFF753
:102C70005EFD002008BD0021016301680C3151E8B0
:102C8000002F22F0100241E80023002BF5D101684B
:102C90000A68D20602D50A6849680091818DFFF75B
:102CA0001CFBE6E770B5044600680169E26821F4A0
:102CB0004051114301612169A068E26908436169DB
:102CC000114308432168CA6849F20C639A430243DE
:102CD000CA6020684169A26921F4407111434161D1
:102CE00031492068884202D03049884202D1FEF73B
:102CF000CDFF01E0FEF7BAFFE26900231921642548
:102D00003226B2F5004F626828D0A0FB0101930F74
:102D10009200FDF7B7FA0146B0FBF5F06FF018022C
:102D2000504301EB800006EB0010B0FBF5F000F023
:102D3000F002B1FBF5F002EB0012B1FBF5F06FF021
:102D40001803584301EB800006EB0010B0FBF5F0D0
:102D500000F00F0021681044886070BDA0FB0101E5
:102D600092185B41FDF78EFA0146B0FBF5F00201C7
:102D7000B1FBF5F06FF01803584301EB800006EB50
:102D8000C000B0FBF5F000F0F80002EB4002B1FB30
:102D9000F5F0584301EB800006EBC000B0FBF5F006
:102DA00000F00700D6E700000010014000140140C9
:102DB00038B58162828500251346044605642220C9
:102DC00084F83E00A26B1C48D063A26B1B481064C1
:102DD000A26B1B48D064A06B0A4605652168A06BF6
:102DE000091DFEF789FC206801684068009084F89E
:102DF0003C50206948B120680C3050E8001F41F475
:102E0000807140E80012002AF5D12068143050E8A3
:102E1000001F41F0010140E80012002AF5D12068AE
:102E2000143050E8001F41F0400140E80012002A31
:102E3000F5D1002038BD0000DF2A0008612B000812
:102E4000952A0008F8B53048FFF782FA2E48006846
:102E50000168C943C90656D401680025406800903E
:102E60002948FFF73BFA294800684068284C294E5A
:102E70006560206838B1284F01280DD0022817D08E
:102E8000032839D12AE0254800F062F851EC100BF4
:102E9000FDF74DFA306007E0204800F059F851EC9A
:102EA000100BFDF744FA38602068401C206023E0D6
:102EB0001A4800F04DF851EC100BFDF738FA01EE0E
:102EC000100A174880ED001A2068401C2060D7EDDA
:102ED000000A96ED000A00F0BFFC0DE00F4800F07C
:102EE00037F851EC100BFDF722FA0E490860FF216C
:102EF0000A48FDF711FA2560BDE8F840FF220749AE
:102F00000148FFF7FFBBF8BD5004002094040020E7
:102F1000240000200000002004000020B400002055
:102F200008000020C4010020FEE70907090E002860
:102F300004DB00F1E02080F80014704700F00F007F
:102F400000F1E02080F8141D704700000000000030
:102F500030B583B0044600F017F89FED090B054625
:102F60008DED000B002221466846FDF736FA284613
:102F700000F020F89DED000B03B030BD0000000014
:102F800000000000000000000148006870470000D9
:102F9000B000002002E008C8121F08C1002AFAD1C0
:102FA00070477047002001E001C1121F002AFBD1C9
:102FB000704700000149086070470000B000002021
:102FC00030380A2801D201207047002070470000E5
:102FD0002DE9F04F00242DED048B83B0B0EE418A33
:102FE0001A4FDFF86CA0F0EE608AB0EE409A2646E9
:102FF0004FF4FA684FF4FA594FF4FA7B04EBC4002B
:1030000000EB041007EB8005284600F057F9CDE9E6
:103010000069CDF80880D5F858C02846F0EE481A67
:10302000B0EE681AF0EE490AB3EE040A5B464FF4BC
:1030300080420121E0475AF82400641C042CC66039
:10304000DCDB03B0BDEC048BBDE8F08FC4070020CF
:103050002406002000B58BB000200121CDE9060137
:1030600008910090019002900390059004906946A9
:103070000548FDF777FE0448FEF776F9022102487D
:10308000FDF7EFFD0BB000BD280400200188B0F96A
:103090000820891A41F28832914202DDC168491E36
:1030A00005E041F28832D14202DAC168491CC160B0
:1030B00070470000024900F0030001EB0010704768
:1030C0009C0500202DED028BFEF754FCFFF71EFC43
:1030D000FFF790FBFFF752FBFFF7AAFBFFF72CFB74
:1030E000FFF7B8FF1448FEF73FF902211248FDF739
:1030F000B8FD12480068C16841F01001C160FF22AC
:103100000F490E48FFF7FEFA9FED0E8ADFED0E0A1B
:10311000B1EE040AB0EE481AFFF75AFFB0EE481AB3
:10312000DFED0A0AB2EE040A00F096FBFFF744FB5B
:1031300000F031F8FEE700002804002050040020D1
:10314000B400002000000000CDCC4C3D0AD7233C49
:1031500001460020842900D0C81C704710B500200B
:10316000FFF7A8FF074C20600120FFF7A3FF606076
:103170000220FFF79FFFA0600320FFF79BFFE060A6
:1031800010BD00002406002010B500B9012000F099
:1031900063FC002010BD10B500F084FC002010BDC1
:1031A0007FB50D4604464169B0F9080081B1A169B7
:1031B00071B1FFF7CDFFD4E905128DE80700D4E91E
:1031C00000102B46226900F080FD039004B070BD12
:1031D000FFF7BEFF03A9CDE90001208A2B4682B28A
:1031E000D4E9001000F044FD012801D00020EDE7F3
:1031F0000398EBE780ED060A90ED071A80ED081AB8
:10320000D0ED0C0AC0ED0D0AD0ED010A30EEC00A77
:1032100080ED070AD0ED101AF0EEC00AF4EEE10AD4
:10322000F1EE10FA46DDD0ED030A60EE801AC0ED33
:10323000091AD0ED0A0A90ED042A42EE000A30EE97
:10324000410AC0ED0A0A90ED051A20EE011A80ED40
:103250000B1A90ED0F0AF4EEC00AF1EE10FA01DD40
:1032600080ED0A0AD0ED0A0AB1EE400AF4EEC00A77
:10327000F1EE10FA02D3B0EE600A01E080ED0A0A26
:1032800031EE800A70EE010AC0ED0C0A90ED0E0AD4
:10329000F4EEC00AF1EE10FA01DD80ED0C0AD0ED7B
:1032A0000C0AB1EE400AF4EEC00AF1EE10FA01D2B7
:1032B00080ED0C0A90ED0C0A70470000034981650F
:1032C0000349C1650349016670470000D93200080F
:1032D00031330008F53100089DED003A9DED022ADA
:1032E000DDED012AB8EE433A017080ED113A80ED30
:1032F000100A00EE103AB8EE400A80ED0F0A00EE18
:10330000102AB8EE400A80ED0E0AB8EEE20A80ED0F
:10331000120AB8EEC20A80ED010A9FED040A80EDA0
:103320000C0A0C30C0EC030A7047000000000000DB
:103330000C3080EC030A70472DE9F041184C0F4621
:103340000546E6682068001D00F0BEFA38B920681E
:1033500090F82C1001208840216981432161681C6C
:1033600007D137B12168BDE8F0410E48091D00F0D2
:10337000EFBA20683544B5424560216805D2A06B9C
:10338000BDE8F041091D00F0CBBA606B091D00F0EB
:10339000C7FAA06A854200D2A562BDE8F0810000AC
:1033A00048000020300A00202DE9F041054600F0D9
:1033B000DBFA2E4CA068401CA06020682C4F10B196
:1033C000606940B32DE02560A068012829D100265E
:1033D00006EB860007EB800000F094FA761C072EBF
:1033E000F6D323488C3000F08DFA2148A03000F04D
:1033F00089FA1F48B43000F085FA1D48C83000F043
:1034000081FA1B48DC3000F07DFA19488C3060638B
:103410001430A06305E02068E96AC06A884200D8D9
:103420002560606A401C6062E96A01202269884068
:103430001043206101EB810007EB8000291D00F0A3
:1034400087FA00F0B1FA606900280CD02068E96AB8
:10345000C06A884207D207494FF080500860BFF326
:103460004F8FBFF36F8FBDE8F08100004800002050
:103470005409002004ED00E010B5044690F8510016
:1034800058B101280CD002280FD0502080F31188A9
:10349000BFF34F8FBFF36F8FFEE7206B00F098FAFA
:1034A0002046BDE8104000F093BA10BD10484FF41C
:1034B0007051420706D0C01D0D4920F00700411A87
:1034C000C1F570510B4A00230144C2E900030839D9
:1034D000183A21F0070111604B600B600B1AC0E92C
:1034E000001393604FF0004053605061704700003C
:1034F000440A00209C000020144E154CA6F1C80779
:103500004FF08058DFF84C9012E000BF00F02CFA2A
:10351000F068C568281D00F0D7F9A068401EA060BB
:103520006068401E606000F03FFA2846FFF7A4FF85
:1035300060680028EAD138680128F9D9C9F8008004
:10354000BFF34F8FBFF36F8FF2E700001C0A00201C
:103550004800002004ED00E02DE9F0479A46DDE93F
:10356000098481466FF00303206B03EB8202104451
:10357000089E20F00707780707D0502080F31188B5
:10358000BFF34F8FBFF36F8FFEE7002561B10020BF
:1035900023180A5C83F834200A5C12B1401C1028FE
:1035A000F6D384F8435001E084F83450072E00D35A
:1035B0000626E662C4E91165201D00F0AEF904F1AB
:1035C000180000F0AAF92461C6F107006462A06146
:1035D000E56484F8505052464946384600F0C0F839
:1035E0002060B8F1000F01D0C8F80040BDE8F087B6
:1035F00030B5114900E011460A688242FBD34B689E
:103600005C18844203D14068184448600846436807
:103610001C18944209D1084C183C2468A24209D0D5
:1036200052681A4442600A6812680260814200D0FF
:10363000086030BD0460F9E79C0000200648416B3B
:10364000096829B1416BC968C968496881627047D6
:103650004FF0FF31FAE700004800002008484068BA
:10366000401C4FF0500080F3118804D0BFF34F8FFF
:10367000BFF36F8FFEE7BFF34F8FBFF36F8FFEE790
:10368000A40000202DE9F0410546002700F040FA93
:10369000324E306808B9FFF709FF706905424ED114
:1036A000C5B3083568070ED005F00700C0F1080063
:1036B0000544680707D0502080F31188BFF34F8F6F
:1036C000BFF36F8FFEE72DB37068854237D823486C
:1036D000183001460C6801E020460C466168A9429A
:1036E00002D221680029F7D131688C4227D00768BF
:1036F0002168016060680837411B10290FD96019E3
:10370000420708D0502080F31188BFF34F8FBFF3DA
:103710006F8FFEE713E041606560FFF769FF616846
:103720007068401A7060B268904200D2B0607069F0
:1037300001430020C4E90001F068401CF06000F083
:1037400055FB780707D0502080F31188BFF34F8FC7
:10375000BFF36F8FFEE73846BDE8F081840000209C
:1037600010B5031F4FF080741C601B1F21F0010176
:103770001960191F044B0B6014390A60091F6FF0A0
:10378000020244380A6010BD5D36000870B5304C46
:1037900090ED000A2F4D84ED010A90ED010A84EDB1
:1037A0001A0A90ED020A84ED330A90ED030A84EDC3
:1037B0004C0A2868216EB0F9020000EE100A20467B
:1037C000B8EEC00A88476868D4F8C410B0F902009F
:1037D00000EE100A04F16400B8EEC00A8847A86839
:1037E000D4F82811B0F9020000EE100A04F1C80064
:1037F000B8EEC00A8847E868D4F88C11B0F9020026
:1038000000EE100A04F59670B8EEC00A884794EDF1
:10381000570ABDEEC00A10EE100A94ED3E0A03B23C
:10382000BDEEC00A10EE100A94ED250A02B2BDEEFC
:10383000C00A10EE100A94ED0C0ABDE87040BDEE0F
:10384000C00A01B210EE100A00B2FDF785B90000FF
:1038500034060020240600202DE9F04700252DED38
:10386000048B84B0B0EE418A164FF0EE608AB0EE61
:10387000409A2E464FF4FA5841F288394FF4804A64
:1038800005EBC50000EB051007EB80042046FFF7B1
:1038900015FDCDE9006820460296A46DF0EE481AA9
:1038A000B0EE681AF0EE490AB2EE040A4B465246F0
:1038B0000121A0476D1C042DE2DB04B0BDEC048B9C
:1038C000BDE8F08734060020D0E9013201699A6032
:1038D000D0E901235A604A68824201D182684A6075
:1038E000002202610868401E0860086870470000F6
:1038F000034B036003F154000860802010607047A0
:10390000D401002000F108014FF0FF32C0E901129C
:10391000C1600161002101607047002101617047B1
:1039200030B50B685A1C02D000F1080202E00269AF
:1039300004E02246546825689D42FAD953684B60DA
:1039400099608A60516008610168491C016030BD5E
:1039500042684A6093688B6093685960916008611F
:103960000168491C01607047502080F31188BFF343
:103970004F8FBFF36F8F0A494868401C4860012889
:103980000CD10848006810F0FF0F07D0502080F3DA
:103990001188BFF34F8FBFF36F8FFEE770470000B2
:1039A000A400002004ED00E00849486828B1401E4A
:1039B000486001D180F311887047502080F311884E
:1039C000BFF34F8FBFF36F8FFEE70000A40000200E
:1039D00070B500282AD0164DA0F108046068696906
:1039E000084207D1502080F31188BFF34F8FBFF3F7
:1039F0006F8FFEE722683AB1502080F31188BFF341
:103A00004F8FBFF36F8FFEE78843606000F080F850
:103A100060686968084468602046FFF7E9FD286926
:103A2000401C2861BDE8704000F0E0B970BD0000A6
:103A3000840000204FF0E0200021016181610549F0
:103A40004FF47A720968B1FBF2F1491E4161072116
:103A5000016170474400002010B5020014D00F48E7
:103A6000006B38B1502080F31188BFF34F8FBFF344
:103A70006F8FFEE700F04CF800211046FFF75CFC6A
:103A800000F0B4F9002807D105494FF080500860D4
:103A9000BFF34F8FBFF36F8F10BD000048000020B1
:103AA00004ED00E010B586B00024039405AA04A933
:103AB00003A80494FFF71CFFDDE903010094CDE99E
:103AC000011000230EA11048059A00F0FEF80F49DE
:103AD0000028C86211D0502080F31188BFF34F8FA7
:103AE000BFF36F8F4FF0FF30886201204861CC60D8
:103AF00006B0BDE8104000F041B806B010BD0000AF
:103B000049444C4500000000F934000848000020FA
:103B10000248016B491C0163704700004800002007
:103B20001448016B11B10121C16170470021C161CD
:103B30000169B1FA81F1C1F11F0101EB81020E4966
:103B400051F822306BB101EB820101F108034A68A0
:103B500052684A609A4201D152684A60D168016055
:103B60007047502080F31188BFF34F8FBFF36F8FE2
:103B7000FEE7000048000020540900201CB537482B
:103B80000168374A914207D1502080F31188BFF372
:103B90004F8FBFF36F8FFEE700683149491E88429F
:103BA00007D1502080F31188BFF34F8FBFF36F8F81
:103BB000FEE72C4908780190FF20087008788DF8FE
:103BC00000009DF800009DF8002000F0F0009042F9
:103BD00007D0502080F31188BFF34F8FBFF36F8F52
:103BE000FEE79DF80000204C00F0500020700720F8
:103BF000A06005E09DF8002052008DF80020401ED6
:103C00009DF800201206F5D4A060032807D05020AC
:103C100080F31188BFF34F8FBFF36F8FFEE74FF430
:103C20004070A060019808700C482030016841F491
:103C300070010160016841F070410160FFF7FAFE18
:103C400000206060FCF7D0FA0848016841F040416C
:103C50000160FCF7B5FA00201CBD000000ED00E09B
:103C600071C20F4100E400E0A400002034EF00E046
:103C70002DE9FF5F8346DDE90E87994616468A46A1
:103C80009000FFF7FFFC05001CD05420FFF7FAFC62
:103C9000040014D00020256384F85100CDE90240CF
:103CA000CDE900874B46324651465846FFF754FC53
:103CB0002046FFF779FB012004B0BDE8F09F2846BD
:103CC000FFF786FE4FF0FF30F6E7F0B585B0DDE98F
:103CD0000B640A9DA6B1DCB1542700972663022627
:103CE00084F85160002604AFCDE90246CDE90057C3
:103CF000FFF732FC2046FFF757FB049805B0F0BDF4
:103D0000502080F31188BFF34F8FBFF36F8FFEE712
:103D1000502080F31188BFF34F8FBFF36F8FFEE702
:103D20002DE9F0412F4C0026206B28B1A069401CE2
:103D3000A0613046BDE8F081E5686D1CE56013D1F7
:103D4000606B006838B1502080F31188BFF34F8F4B
:103D5000BFF36F8FFEE7606BA16B6163A063206AA6
:103D6000401C2062FFF76AFCA06ADFF87C80854275
:103D700009D3606B0068A0B1606BC068C7687868E1
:103D8000854211D2A0622068C06A00EB800158F819
:103D90002100012800D90126E0690028C9D00126A8
:103DA000C7E74FF0FF30EDE7381DFFF78DFDB86A2C
:103DB00018B107F11800FFF787FDF96A01202269A1
:103DC00088401043206101EB810108EB8100391D1F
:103DD000FFF7BEFDF86A2168C96A8842C9D3012687
:103DE000C7E7000048000020540900202DE9F047F3
:103DF0002C4D00242746286B38B1FFF7B5FD286B02
:103E0000401E2863286B40B146E0502080F31188A3
:103E1000BFF34F8FBFF36F8FFEE7A968224E0120DB
:103E2000D1B3A6F1B40980463068E8B1F068C4683F
:103E300004F11800FFF748FD201DFFF745FDE06A7B
:103E40002A6908FA00F11143296100EB800109EBAE
:103E50008100211DFFF77CFDE06A2968C96A88425C
:103E6000E2D3C5F81C80DFE70CB1FFF7E7FBAC69D4
:103E700044B14646FFF754FF00B1EE61641EF9D12C
:103E80000020A861E86938B10849012738070860AF
:103E9000BFF34F8FBFF36F8FFFF786FD3846BDE846
:103EA000F087000048000020080A002004ED00E030
:103EB000543F00086D2800080000000000000000CA
:103EC000800000000000000000000000483F0008E3
:103ED00081280008FDFF00000000000080000000B5
:103EE000000000000000000000061016000610167A
:103EF000000000000000000001020304060708099A
:103F00000000000001020304DDDDDDDDDCBBBBDD04
:103F1000DDDDDDDDDDDDDDDD988888888888888869
:103F20007777777777888888855555566666666689
:103F30006666666666688888833333322222222268
:103F4000222222222228888D6D795461736B3032AF
:103F50000000000064656661756C745461736B00E9
:103F6000803F000800000020B4000000942F0008EB
:103F700034400008B400002094490000A42F000839
:103F80000000000000000000000000000000000031
:103F90000000000000000000000000000000000021
:103FA0000000000000000000000000000000000011
:103FB00000000000000000000100000010000000F0
:103FC000000000000024F4000000000000000000D9
:103FD00000000000000000000000000000000000E1
:103FE00000000000000000000000000000000000D1
:103FF00000000000000000000000000000000000C1
:1040000000000000000000000000000000000000B0
:1040100000000000000000000000000000000000A0
:104020000000000000000000AAAAAAAA00000000E8
:04403000000000008C
:040000050800018965
:00000001FF
